:10050700C0F9A4B0999282F88090FFBF0001010260
:0C05170003030404050606070808090990
:1004E700022900001030000000000000000000009A
:0F04F700000000000000C10001280002210018D1
:06052300D2937F087E0068
:0A052900EF1F70011E144E70F72240
:1004C400120523C2937F5A7E00120529120523A226
:1004D40093E433F52D7F647E00120529D293AF2D6A
:0304E4007E002275
:10047500E4FC7D08EDD39400748094804017C2930A
:10048500EC13FCD2933093034304807F1E7E00124D
:0904950005291D80DFAF047E0083
:01049E00223B
:02049F00AD07A7
:1004A1007B08EBD39400748094804016C293ED13C3
:1004B10092937F057E00120529D293EDC313FD1B94
:0204C10080E0D9
:0104C3002216
:100429001204C4E52D64017003D20022C2007FCCFE
:1004390012049F7F4412049F1204C47FCC12049FAC
:100449007FBE12049F1204758F291204758F2AE545
:100459002A54F864F87011632AFFE529F404F52990
:0C0469007002052A75280122E4F5282203
:1001CB00E529540F90051393753000F531E52A544A
:1001DB000FC454F0FFE52954F0C4540F4FFF75F0D2
:1001EB006484753600F537EF75F06484E5F075F0CF
:1001FB000A84753400F535EF75F00A84AFF075326B
:10020B00008F33E5286032AE327C007D0A1203008A
:10021B00AA06AB07AE34AF357D64120300EF2BFF9C
:10022B00EE3AFEE5312FFFE5303EFEEFF4FFEEF444
:10023B00FEEF2401F52FE48038AE34AF357C007D22
:10024B0064120300AA06AB07AE36AF377C037DE81A
:10025B00120300EF2BFBEE3AFAAE32AF337C007D8C
:10026B000A120300EF2BFFEE3AFEE5312FF52FE5D7
:10027B00303EF52EE53745367010F53675370AE505
:10028B003545347005F53475350AE5286015E535C7
:10029B00640A45347007F53475350B8006753600E6
:1002AB0075370BE4FDEDFF7E00D3940774809480CB
:1002BB005042EF64016005EF640570047F7F80029C
:1002CB007FFFED25E02430F8E6FA08E62407F582F7
:1002DB0074053AF583E4935FF5807FF7A805EF0883
:1002EB00800103D8FDF5A07F647E0012052975A05F
:0402FB00FF0D80B1C2
:0102FF0022DC
:100003001204292000051201CB800375A0FF209460
:10001300020523309416D3E5239400748094804022
:100023000B0522E52270020521E4F523D3E5239491
:10003300647480948040080522E522700205212023
:1000430095020524309516D3E5249400748094809A
:10005300400BE522152270021521E4F524D3E52493
:100063009464748094804008E5221522700215215F
:10007300D3E52F9522E5216480F8E52E648098402E
:1000830004C2928002D292E527640145267002B22F
:10009300922096020525309616D3E52594007480A8
:1000A3009480400B0527E52770020526E4F525E536
:1000B3002745267004C290D291E527640145267036
:1000C30004D290C291C3E5279402E526648094800C
:1000D3004005E4F526F527209007209204C2B68058
:1000E30002D2B6209107209204C2B78002D2B7D3BE
:1000F300E5229400E5216480948540067521057509
:100103002200C3E52294DAE5216480947D500675CC
:1001130021FD7522DAC3E521648094805013E52222
:10012300F4FFE521F4FEEF2401F52CE43EF52B80EA
:100133000685212B85222CAE2BAF2C7C037DE81268
:1001430003128E3E8F3FAE2BAF2C7C037DE8120350
:10015300127E007F64CFCDCFCECCCE1203128E3C65
:100163008F3DAE2BAF2C7C007D641203127E007F8B
:100173000ACFCDCFCECCCE1203128E3A8F3BAE2B0D
:10018300AF2C7C007D0A1203128C388D39E53F4574
:100193003E7010F53E753F0AE53D453C7005F53C64
:1001A300753D0AC3E521648094804003020003E5A2
:1001B3003D640A453C7008F53C753D0B0200037530
:0801C3003E00753F0B02000332
:0300000002039D5B
:0C039D00787FE4F6D8FD75813F0203E490
:10030000EF8DF0A4A8F0CF8CF0A428CE8DF0A42E11
:02031000FE22CB
:10031200C2D5EC30E709B2D5E4C39DFDE49CFCEE06
:1003220030E715B2D5E4C39FFFE49EFE120348C333
:10033200E49DFDE49CFC800312034830D507C3E42E
:060342009FFFE49EFE2275
:1003A900020003E493A3F8E493A34003F68001F267
:1003B90008DFF48029E493A3F85407240CC8C33355
:1003C900C4540F4420C8834004F456800146F6DF24
:1003D900E4800B01020408102040809004E7E47EC9
:1003E900019360BCA3FF543F30E509541FFEE49319
:1003F900A360010ECF54C025E060A840B8E493A3E0
:10040900FAE493A3F8E493A3C8C582C8CAC583CA0A
:10041900F0A3C8C582C8CAC583CADFE9DEE780BEC2
:0105060000F4
:10034800BC000BBE0029EF8DF084FFADF022E4CC99
:10035800F875F008EF2FFFEE33FEEC33FCEE9DEC62
:10036800984005FCEE9DFE0FD5F0E9E4CEFD22EDA8
:10037800F8F5F0EE8420D21CFEADF075F008EF2FF2
:10038800FFED33FD4007985006D5F0F222C398FDE3
:050398000FD5F0EA2280
:00000001FF
